:100000000C94B1000C94D9000C94D9000C943805D0
:100010000C9414050C94F0040C94D9000C94D900A1
:100020000C94D9000C94D9000C94D9000C94D900EC
:100030000C94D9000C94D9000C94D9000C94D900DC
:100040000C94D1050C94D9000C9497050C945C0584
:100050000C94D9000C94D9000C94D9000C94D900BC
:100060000C946B070C94D90000C201000100110030
:1000700011000C0000E100000A002500250021000D
:10008000009600001900390039003600127A00008D
:100090001F004600460044008070000022004D0012
:1000A0004D004A00004B00003600750075007200DC
:1000B000403800004A009C009C0099008025000008
:1000C0007200EC00EC00E900C0120000E900DA0167
:1000D000DA01D70160090000D701B603B603B30304
:1000E000B0040000B3036E076E076B0758020000F0
:1000F0006E07DC0EDC0ED80E2C010000DC0EC11DDC
:10010000C11DBE1D0000000700020100000304061F
:100110000000000000000000000000002500280092
:100120002B0000000000240027002A00000000002F
:100130002300260029000404040404040404020229
:100140000202020203030303030301020408102056
:1001500040800102040810200102040810209E0AB9
:10016000A20811241FBECFEFD8E0DEBFCDBF11E043
:10017000A0E0B1E0E2E2F8E102C005900D92AE39F4
:10018000B107D9F723E0AEE9B1E001C01D92AA366C
:10019000B207E1F710E0C0EBD0E004C02197FE0108
:1001A0000E94FE0BCF3AD107C9F70E94D5080C94E4
:1001B000D30B0C9400002091E9013091EA0128173B
:1001C000390739F48FB7F8941092E7011092E801DB
:1001D0008FBF08952091E9013091EA01281739076E
:1001E00071F48091E7012091E80190E0805C9F4FDD
:1001F000821B910960E470E00E94D60B089580E0B4
:1002000090E008952091E9013091EA01281739071B
:10021000B9F49091E8018091E701981789F0E09195
:10022000E801F0E0E955FE4F80812091E80130E0DF
:100230002F5F3F4F2F7333272093E80190E00895FD
:100240008FEF9FEF089520E001972FEF8F3F9207E8
:10025000D9F70895EF92FF920F931F93CF93DF93F7
:10026000C091E901D091EA01209709F450C09B8D1B
:10027000EE85FF858D8591FF04C09081892329F447
:1002800046C09081892309F042C08B899C890E94D5
:10029000230188E0E82EF12C10E001E08D899E8991
:1002A0000E942301EE85FF8590818D85892311F0C1
:1002B000102B03C0802F80951823000F81E0E81ACF
:1002C000F10861F78F89988D0E9423018B8D81FD44
:1002D00010958091E7012091E80190E001968F73DD
:1002E000992730E08217930779F0E091E701F0E079
:1002F000E955FE4F10838091E70190E001968F73DE
:1003000099278093E70103C08B8D81608B8FDF91EC
:10031000CF911F910F91FF90EF900895DC01ED9127
:10032000FC910284F385E02D41E0099581E090E0A5
:100330000895DC01ED91FC910284F385E02D40E00D
:1003400009940895089521E001C0220F6A95EAF703
:10035000DC011C962C931C971A965C934E9319976C
:10036000ED91FC910084F185E02D60E009940F93FC
:100370001F93CF93DF93FC01A685B7858D01005CA9
:100380001F4FE8018881998101968F739927AD01EC
:100390004E5B5F4FEA012881398182179307D1F3C1
:1003A000E80128813981A20FB31F6C93A685B78518
:1003B000A05CBF4F11969C938E93A689B7892C9110
:1003C00081E090E0078C02C0880F991F0A94E2F741
:1003D000822B8C9381E081A30488F589E02D8081B4
:1003E0008064808381E090E0DF91CF911F910F9135
:1003F0000895FC0181A1882329F0A489B5898C91F5
:1004000086FFFBCF11A20895FC01A485B585FD01EF
:10041000E05CFF4F208131813296808191812817E5
:10042000390779F080819181A80FB91F8C912081C3
:1004300031812F5F3F4F2F7333273183208390E02B
:1004400008958FEF9FEF0895DC011C96ED91FC91CC
:100450001D97DF01A05CBF4F2D913C911197129623
:100460008D919C9111972817390739F08D919C91A6
:10047000E80FF91F808190E008958FEF9FEF0895B6
:10048000FC0124853585F901E05CFF4F8081918175
:10049000329620813181821B930B8F7399270895A7
:1004A000CF92DF92EF92FF920F931F93CF93DF9340
:1004B0006C01EB017B01E40EF51E00E010E0CE15AF
:1004C000DF0561F06991D601ED91FC910190F08119
:1004D000E02DC6010995080F191FF1CFC801DF9162
:1004E000CF911F910F91FF90EF90DF90CF900895E3
:1004F0003FB7F8948091A3019091A401A091A50128
:10050000B091A60126B5A89B05C02F3F19F0019612
:10051000A11DB11D3FBFBA2FA92F982F8827820F89
:10052000911DA11DB11DBC01CD0142E0660F771FD9
:10053000881F991F4A95D1F70895CF92DF92EF92C5
:10054000FF92CF93DF936B017C010E947802EB0155
:10055000C114D104E104F10479F00E9478026C1B0B
:100560007D0B683E7340A0F381E0C81AD108E10812
:10057000F108C851DC4FECCFDF91CF91FF90EF90A5
:10058000DF90CF9008950F931F93CF93DF93EC01EB
:10059000423018F08C8188608C834F8368872223D7
:1005A00029F0413019F48C8184608C8364E670E01A
:1005B00080E090E00E949D026C8164FD31C0E88182
:1005C000F9810284F385E02D42E063E0CE010995D4
:1005D0008AE496E40197F1F7E881F9810284F385D2
:1005E000E02D42E063E0CE01099502E512E0C8018A
:1005F0000197F1F7E881F9810284F385E02D42E06B
:1006000063E0CE010995C8010197F1F7E881F9810E
:100610000284F385E02D42E062E0CE01099517C027
:100620006062CE010E9499018AE496E40197F1F795
:100630006C816062CE010E94990102E512E0C8015E
:100640000197F1F76C816062CE010E949901C801A7
:100650000197F1F76C816062CE010E9499018AEEE8
:1006600090E00197F1F784E08D836CE0CE010E9469
:10067000990161E0CE010E9499018AE39FE101970F
:10068000F1F782E08E8366E0CE010E949901E88155
:10069000F9810084F185E02D6FEFCE01DF91CF91DC
:1006A0001F910F910994DF92EF92FF920F931F9386
:1006B000CF93DF93EC01298D3A8D2115310529F473
:1006C00081E090E09B838A835AC0162FDFB6F894AE
:1006D0008B8D81FD4DC0CE010E949608898D9A8D2B
:1006E00005960E9423018B8D98E0E92EF12C01E004
:1006F00081FF1AC0802F812321F0CE010E9496082D
:1007000006C0E989FA8990818889892B8083898D3F
:100710009A8D0E942301000F81E0E81AF10851F739
:10072000CE010E9496081CC0802F812339F0E989F0
:10073000FA8990818889892B808303C0CE010E9429
:100740009608898D9A8D0E942301000F81E0E81A96
:10075000F10851F7E989FA8990818889892B80838A
:10076000DFBE898D9A8D0E94230121E030E007C011
:10077000E989FA8990818889892B8083AFCFC90163
:10078000DF91CF911F910F91FF90EF90DF9008952F
:10079000FC0123812223B9F0918190956923608324
:1007A000828191E09093F0018093F2011092F10127
:1007B0001092F30184EF91E00E9489060E941207D3
:1007C000282F30E002C020E030E081E090E0232BD1
:1007D00011F080E090E00895EF92FF920F931F9345
:1007E000CF938C01FC01759684E0C0E060FF02C0ED
:1007F0009081C92B6695815031968111F7CF413098
:1008000011F4F8014489F8018585C82BC42B7801BF
:10081000FEE0EF0EF11CF80162896C2BC7010E940B
:10082000C803F801628960956C23C701CF911F91BD
:100830000F91FF90EF900C94C8030F931F93CF93E9
:10084000DF93062F0F70423019F440E0602F10C084
:10085000142F262FEC0130E0B90184E075956795DF
:100860008A95E1F7CE010E94EC03412F602FCE0163
:10087000DF91CF911F910F910C94EC03FC018485C3
:100880008823A9F0218532852115310519F46111DC
:1008900006C007C02130310521F4611102C08587EF
:1008A00001C015866585CF010E960C94C803089586
:1008B000EF92FF920F931F93CF93DF93EC01062FDC
:1008C000F42EE22E8B85888B1092EC011092EB01B6
:1008D0001092F1011092F3011092EF0111E01093C8
:1008E000EE011092ED0182E10E94CC0683E10E94AC
:1008F000CC068091B9008E7F8093B9008091B900B9
:100900008D7F8093B90088E48093B80085E480935C
:10091000BC0088891093F0018093F2011092F101DC
:100920001092F3010E94120791E0811190E0998BDF
:10093000992329F084EF91E00E9435068E878989FA
:10094000882339F01F861C8260E0CE010E960E943B
:10095000C8032E2D4F2D602FCE01DF91CF911F9117
:100960000F91FF90EF900C94C3026115710579F01F
:10097000FB0101900020E9F73197AF01461B570BAF
:10098000DC01ED91FC910280F381E02D099480E07F
:1009900090E00895EF92FF920F931F93CF93DF9310
:1009A000EC010E94B5048C01E881F9810190F0818D
:1009B000E02D6DE0CE0109957C01E881F98101907F
:1009C000F081E02D6AE0CE0109950E0D1F1D800F0C
:1009D000911FDF91CF911F910F91FF90EF9008959C
:1009E0001F920F920FB60F9211242F933F934F93A4
:1009F0005F936F937F938F939F93AF93BF93EF9387
:100A0000FF930E942A01FF91EF91BF91AF919F91B7
:100A10008F917F916F915F914F913F912F910F90A7
:100A20000FBE0F901F9018951F920F920FB60F9246
:100A300011242F933F934F935F936F937F938F93E3
:100A40009F93AF93BF93EF93FF930E942A01FF916F
:100A5000EF91BF91AF919F918F917F916F915F9136
:100A60004F913F912F910F900FBE0F901F901895AF
:100A70001F920F920FB60F9211242F933F934F9313
:100A80005F936F937F938F939F93AF93BF93EF93F6
:100A9000FF930E942A01FF91EF91BF91AF919F9127
:100AA0008F917F916F915F914F913F912F910F9017
:100AB0000FBE0F901F9018951F920F920FB60F92B6
:100AC00011242F933F938F939F93EF93FF93209144
:100AD00040023091410280914202909143022817D6
:100AE000390731F48091C1008F7D8093C10014C01B
:100AF000E0914202F0914302E050FE4F208180914C
:100B000042029091430201968F739927909343027A
:100B1000809342022093C600FF91EF919F918F91A5
:100B20003F912F910F900FBE0F901F9018951F921D
:100B30000F920FB60F9211242F934F935F938F93C1
:100B40009F93EF93FF938091C00082FD1CC0209182
:100B5000C600809184029091850201968F73992737
:100B600040918602509187028417950771F0E091B9
:100B70008402F0918502EC5BFD4F20839093850207
:100B80008093840202C08091C600FF91EF919F91F3
:100B90008F915F914F912F910F900FBE0F901F90EB
:100BA00018951F920F920FB60F9211242F933F9317
:100BB0008F939F93AF93BF9380919F019091A001DA
:100BC000A091A101B091A20130919E0123E0230FD9
:100BD0002D3720F40196A11DB11D05C026E8230F75
:100BE0000296A11DB11D20939E0180939F019093B9
:100BF000A001A093A101B093A2018091A3019091C3
:100C0000A401A091A501B091A6010196A11DB11D5D
:100C10008093A3019093A401A093A501B093A60192
:100C2000BF91AF919F918F913F912F910F900FBEE8
:100C30000F901F90189585ED8093BC008091BC00AB
:100C400084FDFCCF1092EF0108950895089581E08E
:100C500090E03091EC012091EB01321710F480E02C
:100C600090E091958195910908958091EC01909182
:100C7000EB01891730F48F5F8093EC0180E090E006
:100C800008958FEF9FEF08958091EB0190E0209100
:100C9000EC01821B91090895CF92DF92EF92FF92AF
:100CA0000F931F93CF93DF937C018A018091F00112
:100CB000882389F0EB016B01C40ED51ECC15DD0530
:100CC000F1F06991D701ED91FC910190F081E02D57
:100CD000C7010995F3CF842F413288F49091EF0139
:100CE000943069F440930103FB012FED32E0D90108
:100CF0009A2F921B981718F491919D93F9CFC801E0
:100D0000DF91CF911F910F91FF90EF90DF90CF90E7
:100D100008952091F0012223C9F02091F30120329F
:100D200040F021E030E0FC013383228380E090E05A
:100D300008958091F101E82FF0E0E65BFC4F6083BD
:100D40008F5F8093F1018093F30109C08091EF01DF
:100D5000843029F481E0809301036093DF0281E015
:100D600090E008952091E9013091EA0128173907B0
:100D700081F49091E8018091E701981751F0E0919A
:100D8000E801F0E0E955FE4F8081082E000C990B38
:100D900008958FEF9FEF089590E0FC01EC5FFE4F08
:100DA0002491FC01E65BFE4F3491FC01EA5CFE4FAE
:100DB000E491EE23B1F1222339F1233091F038F49C
:100DC0002130A9F0223001F584B58F7D12C0263084
:100DD00091F02730A1F02430B9F4809180008F7D0C
:100DE00003C0809180008F77809380000DC084B510
:100DF0008F7784BD09C08091B0008F7703C0809148
:100E0000B0008F7D8093B000F0E0EE0FFF1FE85E32
:100E1000FE4FA591B4918FB7F894EC913E2B3C9383
:100E20008FBF08952091F3019091F201213208F0D3
:100E300046C08091EF018111FCCF32E03093EF0189
:100E400031E03093EE013FEF3093490310924803B5
:100E500020934703AAE4B3E047E253E0FA013E2FB0
:100E6000341B321718F43D913193F9CF10922603B9
:100E700020912603990F922B909326039091ED01D8
:100E8000913041F41092ED01909126039093BB00B4
:100E900095EC01C095EE9093BC009091EF019230DB
:100EA000E1F3909149039F3F79F0809149038032AB
:100EB00041F080914903803331F084E005C081E046
:100EC00003C082E001C083E01092F1011092F301AF
:100ED0001092F00108951F920F920FB60F921124F5
:100EE0002F933F934F935F936F937F938F939F9332
:100EF000AF93BF93EF93FF938091B900887F8036C3
:100F000009F49CC068F5883209F45BC090F4803124
:100F100009F454C038F4882309F4F3C0883009F484
:100F20004DC0F3C0883109F44CC0803209F45DC073
:100F3000ECC0803409F468C048F4803309F455C02B
:100F4000883309F0E2C080934903D5C0803509F4A5
:100F50004FC0883509F45DC0883409F0D6C0D3C0CD
:100F6000883909F4C4C0A8F4883709F467C038F494
:100F7000883609F463C0803709F460C0C6C0883879
:100F800009F4B5C0803909F45FC0803809F0BDC0EC
:100F90005BC0803B09F483C038F4803A09F466C032
:100FA000883A09F47CC0B1C0803C09F4A4C0883CF4
:100FB00009F4A1C0883B09F487C0A7C0809126032B
:100FC00010C09091480380914703981770F5E09105
:100FD000480381E08E0F80934803F0E0E95DFC4F09
:100FE00080818093BB0085EC83C0809349038BC0D4
:100FF000E091480381E08E0F809348038091BB000D
:10100000F0E0E95DFC4F80839091480380914703B5
:101010006BC0E091480381E08E0F8093480380917C
:10102000BB00F0E0E95DFC4F80838091EE0181110F
:101030006AC081E08093ED0184EA5EC083E0809322
:10104000EF0110922503CFCF80912503803208F065
:101050004EC0E091250381E08E0F8093250380919F
:10106000BB00F0E0EB5FFC4F8083BDCF8091250398
:10107000803230F4E0912503F0E0EB5FFC4F10820A
:101080000E941B066091250370E0E0910303F0913C
:10109000040385E093E00995109225032CC084E0B9
:1010A0008093EF011092020310920103E091FF027E
:1010B000F0910003099580910103811105C081E041
:1010C000809301031092DF02E091020381E08E0F12
:1010D00080930203F0E0E152FD4F80818093BB00DA
:1010E0009091020380910103981708F47CCF85E862
:1010F0008093BC000AC085EC8093BC001092EF0185
:1011000004C0109249030E941B06FF91EF91BF910A
:10111000AF919F918F917F916F915F914F913F918F
:101120002F910F900FBE0F901F901895DC015196D4
:10113000ED91FC915297908150968C9180958923E6
:101140008083089584E391E09093C4028093C30266
:101150002091CF02263140F5283028F02E3030F093
:10116000ECE6F0E005C0EDE6F0E002C0EBE6F0E012
:101170003081283038F481E090E001C0880F2A9552
:10118000EAF70FC0422F50E02E3018F448505109B2
:1011900002C04E50510981E090E001C0880F4A958D
:1011A000EAF78095832380830895CF93DF93CDB7AB
:1011B000DEB728970FB6F894DEBF0FBECDBF789488
:1011C00084B5826084BD84B5816084BD85B582604C
:1011D00085BD85B5816085BD80916E0081608093FD
:1011E0006E00109281008091810082608093810066
:1011F0008091810081608093810080918000816076
:10120000809380008091B10084608093B1008091D0
:10121000B00081608093B00080917A0084608093F8
:101220007A0080917A00826080937A0080917A00BF
:10123000816080937A0080917A00806880937A0040
:101240001092C1001092DD021092DC021092DB02BB
:101250001092DA021092D9021092D8021092D7029C
:101260001092D60288E690E020E030E0FC01459143
:101270005591659174914C3251406105710559F554
:101280004CE0429FC001439F900D1124FC01E459A2
:10129000FF4F259134913093D7022093D602FC0161
:1012A000E259FF4F259134913093D9022093D8020F
:1012B000FC01E059FF4F259134913093DB022093DC
:1012C000DA02FC01EE58FF4F859194919093DD0274
:1012D0008093DC0207C02F5F3F4F0C962D30310505
:1012E00009F0C4CF8091DA029091DB02892B09F4D6
:1012F00046C09091CF029631E0F520916800983079
:1013000050F031E09E3008F430E081E001C0880FF9
:101310003A95EAF701C084E0822B80936800983008
:1013200038F09E3040F0963148F4ECE6F0E008C02A
:10133000EDE6F0E005C0EBE6F0E002C0E0E0F0E052
:101340004081983030F481E001C0880F9A95EAF727
:101350000EC0292F30E09E3018F42850310902C009
:101360002E50310981E001C0880F2A95EAF7842BBD
:1013700080838091DC029091DD020E9423018091A4
:10138000E9019091EA01835C924091F08091DE0244
:101390008E7F8093DE028FB7F8941092E70110924F
:1013A000E80123EC32E03093EA012093E9018FBF9A
:1013B000E0919C02F0919D0281E090E09C01009000
:1013C000A80202C0220F331F0A94E2F72083E091A3
:1013D0009802F09199021082E0919A02F0919B029A
:1013E0002FEC20831092A902E0919E02F0919F02BF
:1013F00040819C010090A40202C0220F331F0A9476
:10140000E2F7242B2083E0919E02F0919F0240811D
:101410009C010090A50202C0220F331F0A94E2F73C
:10142000242B2083E0919E02F0919F0240819C0139
:101430000090A60202C0220F331F0A94E2F7242B69
:101440002083E0919E02F0919F0220810090A702EC
:1014500002C0880F991F0A94E2F780958223808347
:1014600062E471E088E892E00E94CA0460ED77E0EF
:1014700080E090E00E949D0220E044E064E18AEA7E
:1014800092E00E94580440E050E063E08AEA92E073
:101490000E94A30161E08AEA92E00E943E0462E0B9
:1014A0008AEA92E00E9499018AE39FE10197F1F7AD
:1014B0006EE471E08AEA92E00E94B5041D8280E445
:1014C0008E8394E19F8394E5988719828A8380E1D3
:1014D0008B8380E58C832091B102223018F48FEF4A
:1014E000820F01C081E03091B20290E0FE01E80F6E
:1014F000F91F303121F4243011F4618101C065817C
:1015000060688AEA92E00E94990163E671E08AEAE3
:1015100092E00E94B50460E971E080E090E00E94F2
:101520009D0267E771E083EC92E00E94CA0464E9DF
:1015300071E088E892E00E94CA04EDCFCF93DF9378
:101540001092F7011092F60188EE93E0A0E0B0E06F
:101550008093F8019093F901A093FA01B093FB01F5
:1015600024E031E03093F5012093F40110928B02D6
:1015700010928A0280938C0290938D02A0938E0227
:10158000B0938F0224E131E03093890220938802E6
:1015900024E432E0309395022093940220E032E07C
:1015A000309397022093960225EC30E03093990215
:1015B0002093980224EC30E030939B0220939A020F
:1015C00020EC30E030939D0220939C0221EC30E02F
:1015D00030939F0220939E0222EC30E03093A102D0
:1015E0002093A00226EC30E03093A3022093A202C5
:1015F00024E02093A40223E02093A50227E0209377
:10160000A60225E02093A70221E02093A8021092D1
:10161000C6021092C5028093C7029093C802A0939D
:10162000C902B093CA0284E391E09093C40280930C
:10163000C3021092D7021092D6021092D9021092D1
:10164000D8021092DB021092DA021092DD021092A0
:10165000DC028091DE028E7F8D7F8093DE02E5E5E5
:10166000F1E02491E1E4F1E08491882399F090E0A5
:10167000880F991FFC01EE5DFE4FA591B491FC010E
:10168000E85EFE4F859194918FB7F894EC91E22B30
:10169000EC938FBF8BE00E94CC06E5E5F1E0E4918E
:1016A000E093D302E1E4F1E0E491F0E0EE0FFF1FFC
:1016B000E85EFE4F859194919093D5028093D40279
:1016C000E4E5F1E02491E0E4F1E084918823C1F0C5
:1016D00090E0880F991FFC01EE5DFE4FC591D491FB
:1016E000FC01E85EFE4FA591B4919FB7F894888104
:1016F000E22FE0958E2388838C91E823EC939FBFA3
:101700008091DE0281FD03C08AE00E94CC068AE05F
:101710008093CF02E4E5F1E0E491E093D002E0E4CD
:10172000F1E0E491F0E0EE0FFF1FE45DFE4F8591E4
:1017300094919093D2028093D1021092AD021092B4
:10174000AC0284E291E09093AB028093AA021092E3
:10175000BA028FEF8093B9021092B8021092BB02C6
:1017600087E28093B5021092B6021092B7021092EF
:10177000B4021092B30284E08093BC0282E08093B2
:10178000BD0281E08093BE0280E18093BF0280E2CF
:101790008093C00280E48093C10280E88093C202FB
:1017A000DF91CF910895F8940C94040C97FB072EC9
:1017B00016F4009407D077FD09D00E94EA0B07FCCD
:1017C00005D03EF4909581959F4F08957095619551
:1017D0007F4F0895AA1BBB1B51E107C0AA1FBB1F67
:1017E000A617B70710F0A61BB70B881F991F5A95AD
:1017F000A9F780959095BC01CD010895EE0FFF1FCC
:101800000590F491E02D099410E0C0EBD0E004C005
:10181000FE010E94FE0B2196C13BD107C9F7F89447
:02182000FFCFF8
:101822000000000089064C064406350627062606F7
:1018320000000000B7015002400204022402F90134
:10184200000000008E0150025804A3013E041D0452
:101852000000000053035002EA000201B206DB005E
:101862000A0B48656C6C6F20776F726C6400576569
:10187200626173746F20646562756720696E746556
:10188200722E004A75737420746F2074657374200D
:101892007374756666210048656C6C6F20576F72B1
:1018A2006C64202D20536F66747761726553657284
:0E18B20069616C0062616A732062616A730092
:00000001FF
