:100000000C943E010C946F010C946F010C946F01E1
:100010000C946F010C946F010C946F010C946F01A0
:100020000C946F010C946F010C946F010C946F0190
:100030000C946F010C946F010C946F010C946F0180
:100040000C946F010C946F010C946F010C946F0170
:100050000C946F010C946F010C946F010C94510976
:100060000C946F010C947F080C94A7070C946F01FB
:100070000C946F010C946F010C946F010C946F0140
:100080000C946F010C946F010C946F010C946F0130
:100090000C944C080C9468070C946F010C94C403E6
:1000A0000C946F010C946F010C946F010C946F0110
:1000B0000C946F010C946F010C946F010C946F0100
:1000C0000C946F010C946F010C946F010C9419083F
:1000D0000C9429070C946F010C94E6070C94EA0623
:1000E0000C946F01DD08E008D308D7081709E4086D
:1000F000E808EE08F208F608FC08000904091709E8
:100100000A090E0912090C94E0080C94D7080C9403
:100110002C060C94E4010C94FB010C94F6080C944E
:10012000F2080C9400090C9485020C94F3010C94D1
:10013000D5010C94EE080C94D6010C949B090C94F8
:100140008B050C9437060C94DD080C94E4080C9491
:100150000A090C9457060C9412090C9438020C945A
:10016000EA050C94C3020C9417090C940E090C9424
:100170009D060C94FC080C94E8080C94FE020C9468
:10018000D3080C9473060C94E4020C940409000048
:100190002200250028002B002E003100340002012F
:1001A0000000050108010B01050505050705080804
:1001B0000808020202020A0A0808040404040101F1
:1001C0000101010101010303030303030303040706
:1001D00007070C0C0C0C0C0C0C0C0202020206069D
:1001E0000606060606060B0B0B0B0B0B0B0B010290
:1001F0001020200808102040102040800201020139
:1002000008040201010204081020408080402010F0
:100210000804020180040201804020100804020149
:1002200008040201010204081020408001020408B1
:10023000102040800000090A02080B0C0D0706037D
:1002400004010000000000000000000000000000A9
:10025000000000000000000000000000000000009E
:1002600011100F000000000000000000000000005E
:10027000000000000000000000009B0911241FBEC8
:10028000CFEFD1E2DEBFCDBF00E00CBF12E0A0E0B7
:10029000B2E0ECE4F9E100E00BBF02C007900D9280
:1002A000AC35B107D9F725E0ACE5B2E001C01D924D
:1002B000A63CB207E1F711E0CEE3D1E000E006C0D2
:1002C00021970109802FFE010E949C0CCD33D1079C
:1002D00080E00807A9F70E94940A0C94770C0C940C
:1002E000000020916C0590916B05213208F046C00A
:1002F000809148058111FCCF32E03093480531E010
:10030000309347053FEF3093460510924505209303
:100310004405ABE4B5E044E255E0FA013E2F341B5E
:10032000321718F43D913193F9CF109223052091A3
:100330002305990F922B90932305909122059130DC
:1003400041F410922205909123059093BB0095EC07
:1003500001C095EE9093BC00909148059230E1F376
:10036000909146059F3F79F080914605803241F09B
:1003700080914605803331F084E005C081E003C000
:1003800082E001C083E010924A0510926C05109241
:100390004905089585ED8093BC008091BC0084FDE3
:1003A000FCCF1092480508950895089581E090E0EB
:1003B0003091DA042091D904321710F480E090E0F3
:1003C00091958195910908958091DA049091D904CD
:1003D000891730F48F5F8093DA0480E090E008950D
:1003E0008FEF9FEF08958091D90490E02091DA0477
:1003F000821B91090895CF92DF92EF92FF920F93A3
:100400001F93CF93DF937C018A0180914905882354
:1004100089F0EB016B01C40ED51ECC15DD05F1F0A2
:100420006991D701ED91FC910190F081E02DC70118
:100430001995F3CF842F413288F490914805943078
:1004400069F44093FD04FB012BED34E0D9019A2FB0
:10045000921B981718F491919D93F9CFC801DF91E1
:10046000CF911F910F91FF90EF90DF90CF90089563
:10047000209149052223C9F020916C05203240F0DB
:1004800021E030E0FC013383228380E090E0089596
:1004900080914A05E82FF0E0E55BFA4F60838F5FBB
:1004A00080934A0580936C0509C08091480584308B
:1004B00029F481E08093FD046093DB0481E090E007
:1004C0000895FC0123812223B9F09181909569233D
:1004D0006083828191E09093490580936B0510922F
:1004E0004A0510926C058DE695E00E9438020E9444
:1004F0007101282F30E002C020E030E081E090E080
:10050000232B11F080E090E00895DC01ED91FC9147
:100510000284F385E02D41E0199581E090E0089593
:1005200008950895EF92FF920F931F93CF938C013C
:10053000FC01759684E0C0E060FF02C09081C92B89
:100540006695815031968111F7CF413011F4F80151
:100550004489F8018585C82BC42B7801FEE0EF0E95
:10056000F11CF80162896C2BC7010E946102F8013D
:10057000628960956C23C701CF911F910F91FF9005
:10058000EF900C9461020F931F93CF93DF93062F8C
:100590000F70423019F440E0602F10C0142F262F46
:1005A000EC0130E0B90184E0759567958A95E1F733
:1005B000CE010E949202412F602FCE01DF91CF9198
:1005C0001F910F910C949202FC0184858823A9F05D
:1005D000218532852115310519F4611106C007C046
:1005E0002130310521F4611102C0858701C01586D3
:1005F0006585CF010E960C946102089521E001C03B
:10060000220F6A95EAF7DC011C962C931C971A9628
:100610005C934E931997ED91FC910084F185E02D48
:1006200060E01994CF93DF93C2E0D2E06881229614
:1006300084EF93E00E94EA0582E0CC30D807B1F75E
:1006400064E670E080E090E0DF91CF910C942B099C
:10065000CF92DF92EF92FF92CF936B017C01C42F78
:10066000C11481EED806E104F10421F1E0910804FF
:10067000F091090481E090E00090140402C0880F1A
:10068000991F0A94E2F7808360E079E08DE390E0BF
:10069000A70196010E947A0CDA01C9010197A1090C
:1006A000B109B695A795979587959C01211580E18D
:1006B0003807B8F0E0910804F0910904108260E86E
:1006C00074E88EE190E0A70196010E947A0CDA01AD
:1006D000C9010197A109B109B695A7959795879585
:1006E0009C01E0910404F09105043083E09106043C
:1006F000F09107042083E0910C04F0910D04C08375
:10070000E0910A04F0910B04408181E090E09C01AB
:100710000090100402C0220F331F0A94E2F7242B2A
:100720002083E0910A04F0910B0440819C01009029
:10073000110402C0220F331F0A94E2F7242B2083F6
:10074000E0910A04F0910B0440819C010090120496
:1007500002C0220F331F0A94E2F7242B2083E0917A
:100760000A04F0910B0420810090130402C0880F4A
:10077000991F0A94E2F7809582238083CF91FF909E
:10078000EF90DF90CF9008951F920F920FB60F92C7
:1007900011240BB60F922F933F934F935F936F9358
:1007A0007F938F939F93AF93BF93EF93FF9380912A
:1007B000B900887F803609F49CC068F5883209F456
:1007C0005BC090F4803109F454C038F4882309F4F4
:1007D000F3C0883009F44DC0F3C0883109F44CC02F
:1007E000803209F45DC0ECC0803409F468C048F47C
:1007F000803309F455C0883309F0E2C08093460580
:10080000D5C0803509F44FC0883509F45DC08834FF
:1008100009F0D6C0D3C0883909F4C4C0A8F4883719
:1008200009F467C038F4883609F463C0803709F4E6
:1008300060C0C6C0883809F4B5C0803909F45FC00B
:10084000803809F0BDC05BC0803B09F483C038F438
:10085000803A09F466C0883A09F47CC0B1C0803C93
:1008600009F4A4C0883C09F4A1C0883B09F487C0FE
:10087000A7C08091230510C0909145058091440543
:10088000981770F5E091450581E08E0F809345053E
:10089000F0E0EC5DFA4F80818093BB0085EC83C073
:1008A000809346058BC0E091450581E08E0F8093D3
:1008B00045058091BB00F0E0EC5DFA4F808390919C
:1008C0004505809144056BC0E091450581E08E0FA0
:1008D000809345058091BB00F0E0EC5DFA4F80838A
:1008E0008091470581116AC081E08093220584EAE6
:1008F0005EC083E08093480510922105CFCF8091A0
:100900002105803208F04EC0E091210581E08E0F74
:10091000809321058091BB00F0E0EF5FFA4F808368
:10092000BDCF80912105803230F4E0912105F0E0C7
:10093000EF5FFA4F10820E94CA016091210570E0BA
:10094000E091FF04F091000581E095E01995109287
:1009500021052CC084E0809348051092FE0410927B
:10096000FD04E091FB04F091FC0419958091FD04D5
:10097000811105C081E08093FD041092DB04E091B9
:10098000FE0481E08E0F8093FE04F0E0E552FB4F01
:1009900080818093BB009091FE048091FD049817A4
:1009A00008F47CCF85E88093BC000AC085EC809376
:1009B000BC001092480504C0109246050E94CA016E
:1009C000FF91EF91BF91AF919F918F917F916F9127
:1009D0005F914F913F912F910F900BBE0F900FBEE3
:1009E0000F901F901895DC01ED91FC910284F38526
:1009F000E02D40E019940F931F93CF93DF93EC0108
:100A0000423018F08C8188608C834F836887222362
:100A100029F0413019F48C8184608C8364E670E0A5
:100A200080E090E00E942B096C8164FD31C0E88178
:100A3000F9810284F385E02D42E063E0CE0119954F
:100A40008AE496E40197F1F7E881F9810284F3855D
:100A5000E02D42E063E0CE01199502E512E0C80105
:100A60000197F1F7E881F9810284F385E02D42E0F6
:100A700063E0CE011995C8010197F1F7E881F9818A
:100A80000284F385E02D42E062E0CE01199517C0A3
:100A90006062CE010E94F3048AE496E40197F1F7C4
:100AA0006C816062CE010E94F30402E512E0C8018D
:100AB0000197F1F76C816062CE010E94F304C801D6
:100AC0000197F1F76C816062CE010E94F3048AEE17
:100AD00090E00197F1F784E08D836CE0CE010E94F5
:100AE000F30461E0CE010E94F3048AE39FE10197E1
:100AF000F1F782E08E8366E0CE010E94F304E88184
:100B0000F9810084F185E02D6FEFCE01DF91CF9167
:100B10001F910F911994EF92FF920F931F93CF9310
:100B2000DF93EC01062FF42EE22E8B85888B10923A
:100B3000DA041092D90410924A0510926C051092B2
:100B4000480511E0109347051092220561E084E109
:100B50000E94B20861E085E10E94B2088091B9006C
:100B60008E7F8093B9008091B9008D7F8093B9000A
:100B700088E48093B80085E48093BC008889109352
:100B8000490580936B0510924A0510926C050E94EE
:100B9000710191E0811190E0998B992329F08DE604
:100BA00095E00E94E4018E878989882339F01F86A9
:100BB0001C8260E0CE010E960E9461022E2D4F2D08
:100BC000602FCE01DF91CF911F910F91FF90EF9099
:100BD0000C94FB040F931F93CF93DF93FC01A68526
:100BE000B7858D01005C1F4FE801888199810196CE
:100BF0008F739927AD014E5B5F4FEA0128813981E0
:100C000082179307D1F3E80128813981A20FB31F1E
:100C10006C93A685B785A05CBF4F11969C938E936D
:100C2000A689B7892C9181E090E0078C02C0880FDB
:100C3000991F0A94E2F7822B8C9381E081A30488A8
:100C4000F589E02D80818064808381E090E0DF91F0
:100C5000CF911F910F910895FC0181A1882329F064
:100C6000A489B5898C9186FFFBCF11A20895FC0160
:100C7000A485B585FD01E05CFF4F2081318132966E
:100C8000808191812817390779F080819181A80F9F
:100C9000B91F8C91208131812F5F3F4F2F733327F4
:100CA0003183208390E008958FEF9FEF0895DC015A
:100CB0001C96ED91FC911D97DF01A05CBF4F2D911B
:100CC0003C91119712968D919C9111972817390795
:100CD00039F08D919C91E80FF91F808190E0089583
:100CE0008FEF9FEF0895FC0124853585F901E05CC5
:100CF000FF4F80819181329620813181821B930B3D
:100D00008F7399270895FB01E05CFF4F20813181AB
:100D10002F5F3F4F2F733327DB01AE5BBF4F4D91EA
:100D20005C912417350741F040815181DB01A40F0C
:100D3000B51F8C93318320830895CF92DF92EF9279
:100D4000FF920F931F93CF93DF936C01EB017B0115
:100D5000E40EF51E00E010E0CE15DF0561F06991AC
:100D6000D601ED91FC910190F081E02DC60119951D
:100D7000080F191FF1CFC801DF91CF911F910F917B
:100D8000FF90EF90DF90CF9008953FB7F894809157
:100D9000C2059091C305A091C405B091C50526B5C3
:100DA000A89B05C02F3F19F00196A11DB11D3FBFA3
:100DB000BA2FA92F982F8827820F911DA11DB11D31
:100DC000BC01CD0142E0660F771F881F991F4A952D
:100DD000D1F708951F920F920FB60F9211240BB600
:100DE0000F922F933F938F939F93EF93FF932091B5
:100DF0009C0230919D0280919E0290919F02281743
:100E0000390731F4809131018F7D8093310114C015
:100E1000E0919E02F0919F02E45AFD4F2081809163
:100E20009E0290919F0201968F73992790939F0243
:100E300080939E0220933601FF91EF919F918F91B5
:100E40003F912F910F900BBE0F900FBE0F901F90F0
:100E500018951F920F920FB60F9211240BB60F9296
:100E60002F933F938F939F93EF93FF9320912403AE
:100E70003091250380912603909127032817390785
:100E800031F48091D1008F7D8093D10014C0E09126
:100E90002603F0912703EC51FD4F2081809126031A
:100EA0009091270301968F7399279093270380933E
:100EB00026032093D600FF91EF919F918F913F9150
:100EC0002F910F900BBE0F900FBE0F901F90189593
:100ED0001F920F920FB60F9211240BB60F922F9301
:100EE0003F938F939F93EF93FF932091AC033091A7
:100EF000AD038091AE039091AF032817390731F409
:100F00008091C9008F7D8093C90014C0E091AE0329
:100F1000F091AF03E459FC4F20818091AE03909192
:100F2000AF0301968F7399279093AF038093AE031D
:100F30002093CE00FF91EF919F918F913F912F9140
:100F40000F900BBE0F900FBE0F901F9018951F9221
:100F50000F920FB60F9211240BB60F922F933F935F
:100F60008F939F93EF93FF932091560430915704F2
:100F700080915804909159042817390731F48091D1
:100F8000C1008F7D8093C10014C0E0915804F0919E
:100F90005904EA5EFB4F20818091580490915904D6
:100FA00001968F7399279093590480935804209346
:100FB000C600FF91EF919F918F913F912F910F90DC
:100FC0000BBE0F900FBE0F901F9018951F920F929F
:100FD0000FB60F9211240BB60F922F933F934F939E
:100FE0005F936F937F938F939F93AF93BF93EF9391
:100FF000FF938091300182FD07C08091360160EA45
:1010000072E00E94830602C080913601FF91EF9149
:10101000BF91AF919F918F917F916F915F914F9110
:101020003F912F910F900BBE0F900FBE0F901F900E
:1010300018951F920F920FB60F9211240BB60F92B4
:101040002F933F934F935F936F937F938F939F93D0
:10105000AF93BF93EF93FF938091D00082FD07C0C1
:101060008091D60068E273E00E94830602C08091FE
:10107000D600FF91EF91BF91AF919F918F917F919A
:101080006F915F914F913F912F910F900BBE0F90F9
:101090000FBE0F901F9018951F920F920FB60F92D0
:1010A00011240BB60F922F933F934F935F936F933F
:1010B0007F938F939F93AF93BF93EF93FF93809111
:1010C000C80082FD07C08091CE0060EB73E00E94F3
:1010D000830602C08091CE00FF91EF91BF91AF9146
:1010E0009F918F917F916F915F914F913F912F9140
:1010F0000F900BBE0F900FBE0F901F9018951F9270
:101100000F920FB60F9211240BB60F922F933F93AD
:101110004F935F936F937F938F939F93AF93BF93FF
:10112000EF93FF938091C00082FD07C08091C600BD
:101130006AE574E00E94830602C08091C600FF91B8
:10114000EF91BF91AF919F918F917F916F915F913F
:101150004F913F912F910F900BBE0F900FBE0F90AC
:101160001F901895362F90E0FC01EC5CFD4F4491E8
:10117000FC01E251FE4F2491FC01E855FE4F949191
:10118000992309F467C0442309F451C050E0FA01DF
:101190003197E131F10508F04AC08827EE58FF4F3A
:1011A0008F4F0C949C0C809180008F7703C08091AE
:1011B00080008F7D809380003AC084B58F7702C015
:1011C00084B58F7D84BD33C08091B0008F7703C01C
:1011D0008091B0008F7D8093B00029C080919000F5
:1011E0008F7707C0809190008F7D03C08091900021
:1011F000877F809390001BC08091A0008F7707C0ED
:101200008091A0008F7D03C08091A000877F809394
:10121000A0000DC0809120018F7707C08091200130
:101220008F7D03C080912001877F80932001E92F6B
:10123000F0E0EE0FFF1FE257FE4FA591B4918FB77C
:10124000F894EC91311103C020952E2301C02E2B70
:101250002C938FBF0895CF92DF92EF92FF92CF939E
:10126000DF936B017C010E94C506EB01C114D10420
:10127000E104F10479F00E94C5066C1B7D0B683E09
:101280007340A0F381E0C81AD108E108F108C85101
:10129000DC4FECCFDF91CF91FF90EF90DF90CF90BC
:1012A00008951F920F920FB60F9211242F933F9320
:1012B0008F939F93AF93BF938091BE059091BF058D
:1012C000A091C005B091C1053091BD0523E0230F69
:1012D0002D3720F40196A11DB11D05C026E8230F6E
:1012E0000296A11DB11D2093BD058093BE0590936C
:1012F000BF05A093C005B093C1058091C205909130
:10130000C305A091C405B091C5050196A11DB11DED
:101310008093C2059093C305A093C405B093C505FF
:10132000BF91AF919F918F913F912F910F900FBEE1
:101330000F901F9018950F931F93CF93EDE6F5E054
:101340001382128248EE53E060E070E044835583DC
:101350006683778380E192E091838083EEE9F4E015
:10136000138212824483558366837783A0E2B2E0BE
:10137000B183A0838AE594E09587848786E194E031
:101380009787868785EC90E0918B808B84EC90E04A
:10139000938B828B80EC90E0958B848B81EC90E03A
:1013A000978B868B82EC90E0918F808F86EC90E01B
:1013B000938F828F94E0948FC3E0C58F37E0368F90
:1013C00025E0278F81E080A3E4EFF3E0138212820F
:1013D0004483558366837783B183A08300EB13E056
:1013E000158704870CE613E0178706870DEC10E0DD
:1013F000118B008B0CEC10E0138B028B08EC10E0CF
:10140000158B048B09EC10E0178B068B0AEC10E0AF
:10141000118F008F0EEC10E0138F028F948FC58F09
:10142000368F278F80A3EBE9F5E013821282448385
:10143000558366837783B183A08308E213E0158721
:10144000048704EE12E01787068705ED10E0118B84
:10145000008B04ED10E0138B028B00ED10E0158B78
:10146000048B01ED10E0178B068B02ED10E0118F5D
:10147000008F06ED10E0138F028F948FC58F368F8B
:10148000278F80A3E9E7F5E0138212824483558316
:1014900066837783B183A08340EA52E0558744870F
:1014A0004CE552E05787468745E351E0518B408B2E
:1014B00044E351E0538B428B40E351E0558B448B26
:1014C00041E351E0578B468B42E351E0518F408F0F
:1014D00046E351E0538F428F948FC58F368F278F0D
:1014E00080A3E0ECF4E01382128220E332E0318347
:1014F0002083108A2FEF27871686118A27E22387F9
:101500001486158612861186928B92E0938B848BBB
:1015100080E1858B80E2868B80E4878B80E8808FFA
:10152000CF911F910F910895CF93DF93CDB7DEB781
:1015300028970FB6F894DEBF0FBECDBF789484B560
:10154000826084BD84B5816084BD85B5826085BDBF
:1015500085B5816085BD80916E00816080936E004D
:10156000109281008091810082608093810080913F
:1015700081008160809381008091800081608093F0
:1015800080008091B10084608093B1008091B000B0
:1015900081608093B000809191008260809391007F
:1015A0008091910081608093910080919000816092
:1015B000809390008091A10082608093A10080912F
:1015C000A10081608093A1008091A0008160809340
:1015D000A0008091210182608093210180912101EE
:1015E000816080932101809120018160809320019E
:1015F00080917A00846080937A0080917A00826082
:1016000080937A0080917A00816080937A00809143
:101610007A00806880937A001092C100E091B20451
:10162000F091B30481E090E09C010090BE0402C000
:10163000220F331F0A94E2F72083E091AE04F09169
:10164000AF041082E091B004F091B1042FEC20833C
:101650001092BF04E091B404F091B50440819C0164
:101660000090BA0402C0220F331F0A94E2F7242B21
:101670002083E091B404F091B50440819C01009076
:10168000BB0402C0220F331F0A94E2F7242B2083ED
:10169000E091B404F091B50440819C010090BC0439
:1016A00002C0220F331F0A94E2F7242B2083E0911B
:1016B000B404F091B50420810090BD0402C0880FED
:1016C000991F0A94E2F78095822380834BE050E0D3
:1016D0006CE372E08EE994E00E949D06E0919E0426
:1016E000F0919F040190F081E02D6DE08EE994E08F
:1016F0001995E0919E04F0919F040190F081E02DF6
:101700006AE08EE994E0199560ED77E080E090E082
:101710000E942B0920E044E064E180EC94E00E9408
:101720008B0540E050E063E080EC94E00E94FE0214
:1017300061E080EC94E00E94E40262E080EC94E0DE
:101740000E94F3048AE39FE10197F1F747E050E03C
:1017500068E472E080EC94E00E949D061D8280E4C3
:101760008E8394E19F8394E5988719828A8380E130
:101770008B8380E58C832091C704223018F48FEF8F
:10178000820F01C081E03091C80490E0FE01E80FB3
:10179000F91F303121F4243011F4618101C06581D9
:1017A000606880EC94E00E94F3044BE050E060E558
:1017B00072E080EC94E00E949D0646E260E679E0EB
:1017C00080E090E00E942803E12CF12C01E010E081
:1017D00081E0E816F10409F485C08091020490913B
:1017E0000304DC01A05CBF4FFC01EE5BFF4F2D91B9
:1017F0003C9111978081918128173907C1F7E091B9
:101800000A04F0910B04908198010090100402C02A
:10181000220F331F0A94E2F7822F80958923808359
:10182000E0910A04F0910B0490819801009011045A
:1018300002C0220F331F0A94E2F7822F809589237A
:101840008083E0910A04F0910B049081980100904C
:10185000120402C0220F331F0A94E2F7822F8095F0
:1018600089238083E0910A04F0910B049081980110
:101870000090130402C0220F331F0A94E2F7822F54
:101880008095892380838091000490910104FC015C
:10189000EE5BFF4F2081318132973183208361E0FD
:1018A00082E10E94B20868EE73E080E090E00E945E
:1018B0002B0960E082E10E94B20862E370E080E000
:1018C00090E00E942B0961E082E10E94B20846E2AA
:1018D00060E679E080E090E00E942803EE24E39443
:1018E000F12C76CF0E9412030E94120371CFF8945C
:1018F0000C94A40CA1E21A2EAA1BBB1BFD010DC067
:10190000AA1FBB1FEE1FFF1FA217B307E407F507AF
:1019100020F0A21BB30BE40BF50B661F771F881F8B
:10192000991F1A9469F760957095809590959B0121
:10193000AC01BD01CF010895EE0FFF1F881F8BBFC3
:0C1940000790F691E02D1994F894FFCF69
:10194C000600F400030051000A00AC000000000087
:10195C003802FB01F301E401D601D50100000000BF
:10196C00EA059D067306370657062C060000000094
:10197C0085029D068B05FE02E402C30248656C6C71
:10198C006F20776F726C64005765626173746F00BF
:0C199C0074657374207374756666210016
:00000001FF
