:100000000C943E010C946F010C946F010C946F01E1
:100010000C946F010C946F010C946F010C946F01A0
:100020000C946F010C946F010C946F010C946F0190
:100030000C946F010C946F010C946F010C946F0180
:100040000C946F010C946F010C946F010C946F0170
:100050000C946F010C946F010C946F010C94ED09DA
:100060000C946F010C947F090C94A7080C946F01F9
:100070000C946F010C946F010C946F010C946F0140
:100080000C946F010C946F010C946F010C946F0130
:100090000C944C090C9468080C946F010C94A50303
:1000A0000C946F010C946F010C946F010C946F0110
:1000B0000C946F010C946F010C946F010C946F0100
:1000C0000C946F010C946F010C946F010C9419093E
:1000D0000C9429080C946F010C94E6080C94EA0720
:1000E0000C946F01AC06AF06A206A606E606B306A0
:1000F000B706BD06C106C506CB06CF06D306E60683
:10010000D906DD06E1060C9450070C948B070C947D
:10011000E8050C948B010C9413060C94A6060C9421
:10012000A6050C949A010C94D3060C94A2060C9488
:1001300071070C9459060C9492050C94370A0C9490
:100140002F060C94C5060C94CF060C947C010C94DD
:10015000E1060C94C1060C94CB060C94DD060C94BD
:10016000AF060C9408020C94AC060C94F3050C94A6
:100170007D010C94BD060C94A2010C94B7060C945E
:10018000D9060C94B3060C94DF010C94E60600002B
:100190002200250028002B002E003100340002012F
:1001A0000000050108010B01050505050705080804
:1001B0000808020202020A0A0808040404040101F1
:1001C0000101010101010303030303030303040706
:1001D00007070C0C0C0C0C0C0C0C0202020206069D
:1001E0000606060606060B0B0B0B0B0B0B0B010290
:1001F0001020200808102040102040800201020139
:1002000008040201010204081020408080402010F0
:100210000804020180040201804020100804020149
:1002200008040201010204081020408001020408B1
:10023000102040800000090A02080B0C0D0706037D
:1002400004010000000000000000000000000000A9
:10025000000000000000000000000000000000009E
:1002600011100F000000000000000000000000005E
:1002700000000000000000000000370A11241FBE2B
:10028000CFEFD1E2DEBFCDBF00E00CBF12E0A0E0B7
:10029000B2E0E4E0FCE100E00BBF02C007900D9289
:1002A000A437B107D9F725E0A4E7B2E001C01D9259
:1002B000AE3DB207E1F711E0CEE3D1E000E006C0C9
:1002C00021970109802FFE010E94F80DCD33D1073F
:1002D00080E00807A9F70E94300B0C94D30D0C9412
:1002E000000085ED8093BC008091BC0084FDFCCFB4
:1002F0001092780208950895089581E090E0309179
:10030000750220917402321710F480E090E091950C
:1003100081959109089580917502909174028917D1
:1003200030F48F5F8093750280E090E008958FEF46
:100330009FEF08958091740290E020917502821BD6
:1003400091090895CF92DF92EF92FF920F931F933E
:10035000CF93DF937C018A0180917902882389F011
:10036000EB016B01C40ED51ECC15DD05F1F06991D2
:10037000D701ED91FC910190F081E02DC701199515
:10038000F3CF842F413288F490917802943069F44D
:1003900040932805FB0126E035E0D9019A2F921BF6
:1003A000981718F491919D93F9CFC801DF91CF91DF
:1003B0001F910F91FF90EF90DF90CF9008952091C3
:1003C00079022223C9F020917C02203240F021E002
:1003D00030E0FC013383228380E090E00895809137
:1003E0007A02E82FF0E0EF58FA4F60838F5F809336
:1003F0007A0280937C0209C080917802843029F4CB
:1004000081E0809328056093060581E090E00895DF
:10041000DC01ED91FC910284F385E02D41E019951A
:1004200081E090E008958F929F92AF92BF92EF92F9
:10043000FF920F931F93CF93DF93CDB7DEB7A197B2
:100440000FB6F894DEBF0FBECDBF162F042F19A232
:10045000423008F40AE07E0121E2E20EF11C802E17
:10046000912CA12CB12C612FA50194010E94D60DD5
:10047000029F1019112481E0E81AF1081A3014F4CF
:10048000105D01C0195CF7011083122F732FCA0190
:10049000232B242B252B39F7B7018BEC94E00E94FA
:1004A000B209A1960FB6F894DEBF0FBECDBFDF91A3
:1004B000CF911F910F91FF90EF90BF90AF909F90C1
:1004C0008F900895CF93DF93C2E0D2E068812296A7
:1004D00081E294E00E94A60582E0CC30D807B1F713
:1004E00064E670E080E090E0DF91CF910C94C70962
:1004F000CF92DF92EF92FF92CF936B017C01C42FDA
:10050000C11481EED806E104F10421F1E091350433
:10051000F091360481E090E00090410402C0880F21
:10052000991F0A94E2F7808360E079E08DE390E020
:10053000A70196010E94D60DDA01C9010197A10910
:10054000B109B695A795979587959C01211580E1EE
:100550003807B8F0E0913504F0913604108260E875
:1005600074E88EE190E0A70196010E94D60DDA01B1
:10057000C9010197A109B109B695A79597958795E6
:100580009C01E0913104F09132043083E091330416
:10059000F09134042083E0913904F0913A04C0834F
:1005A000E0913704F0913804408181E090E09C01B3
:1005B00000903D0402C0220F331F0A94E2F7242B5F
:1005C0002083E0913704F091380440819C01009031
:1005D0003E0402C0220F331F0A94E2F7242B20832B
:1005E000E0913704F091380440819C0100903F0471
:1005F00002C0220F331F0A94E2F7242B2083E091DC
:100600003704F091380420810090400402C0880F24
:10061000991F0A94E2F7809582238083CF91FF90FF
:10062000EF90DF90CF900895E091CB04F091CC044F
:100630000190F081E02D682F8BEC94E01994CF931A
:10064000DF938DE00E941403EC018AE00E94140302
:100650008C0F9D1FDF91CF910895CF92DF92EF9283
:10066000FF92CF93DF93EC0180E20E9414036E01AE
:100670000D2E000CEE08FF0860971CF480E30E942A
:10068000140340E1C701B601DF91CF91FF90EF90D5
:10069000DF90CF900C94130220917C0290917B020A
:1006A000213208F046C0809178028111FCCF32E0FF
:1006B0003093780231E0309377023FEF309370054A
:1006C00010926F0520936E05A1E7B5E04EE455E06A
:1006D000FA013E2F341B321718F43D913193F9CFB4
:1006E00010924D0520914D05990F922B90934D0539
:1006F00090917602913041F41092760290914D05DE
:100700009093BB0095EC01C095EE9093BC00909146
:1007100078029230E1F3909170059F3F79F08091DB
:100720007005803241F080917005803331F084E0B3
:1007300005C081E003C082E001C083E010927A022C
:1007400010927C021092790208951F920F920FB6B8
:100750000F9211240BB60F922F933F934F935F93F9
:100760006F937F938F939F93AF93BF93EF93FF9379
:100770008091B900887F803609F49CC068F5883282
:1007800009F45BC090F4803109F454C038F4882334
:1007900009F4F3C0883009F44DC0F3C0883109F47E
:1007A0004CC0803209F45DC0ECC0803409F468C0EC
:1007B00048F4803309F455C0883309F0E2C08093CF
:1007C0007005D5C0803509F44FC0883509F45DC087
:1007D000883409F0D6C0D3C0883909F4C4C0A8F45D
:1007E000883709F467C038F4883609F463C0803765
:1007F00009F460C0C6C0883809F4B5C0803909F46E
:100800005FC0803809F0BDC05BC0803B09F483C085
:1008100038F4803A09F466C0883A09F47CC0B1C063
:10082000803C09F4A4C0883C09F4A1C0883B09F4C9
:1008300087C0A7C080914D0510C090916F05809131
:100840006E05981770F5E0916F0581E08E0F80932B
:100850006F05F0E0E25BFA4F80818093BB0085EC8E
:1008600083C0809370058BC0E0916F0581E08E0F8F
:1008700080936F058091BB00F0E0E25BFA4F8083CC
:1008800090916F0580916E056BC0E0916F0581E0DE
:100890008E0F80936F058091BB00F0E0E25BFA4F12
:1008A00080838091770281116AC081E08093760213
:1008B00084EA5EC083E08093780210924C05CFCF2B
:1008C00080914C05803208F04EC0E0914C0581E0EB
:1008D0008E0F80934C058091BB00F0E0E45DFA4FF1
:1008E0008083BDCF80914C05803230F4E0914C057F
:1008F000F0E0E45DFA4F10820E94710160914C05B6
:1009000070E0E0912A05F0912B058CE295E01995B5
:1009100010924C052CC084E0809378021092290537
:1009200010922805E0912605F091270519958091F0
:100930002805811105C081E08093280510920605E5
:10094000E091290581E08E0F80932905F0E0EA5FB0
:10095000FA4F80818093BB009091290580912805F2
:10096000981708F47CCF85E88093BC000AC085EC1A
:100970008093BC001092780204C0109270050E940F
:100980007101FF91EF91BF91AF919F918F917F91F5
:100990006F915F914F913F912F910F900BBE0F90F0
:1009A0000FBE0F901F901895FC0123812223B9F0F0
:1009B0009181909569236083828191E0909379027F
:1009C00080937B0210927A0210927C028DE792E073
:1009D0000E94DF010E944C03282F30E002C020E07B
:1009E00030E081E090E0232B11F080E090E008956A
:1009F000DC01ED91FC910284F385E02D40E0199437
:100A00000F931F93CF93DF93EC01423018F08C814A
:100A100088608C834F836887222329F0413019F442
:100A20008C8184608C8364E670E080E090E00E94BA
:100A3000C7096C8164FD31C0E881F9810284F385C6
:100A4000E02D42E063E0CE0119958AE496E4019737
:100A5000F1F7E881F9810284F385E02D42E063E05B
:100A6000CE01199502E512E0C8010197F1F7E8817E
:100A7000F9810284F385E02D42E063E0CE0119950F
:100A8000C8010197F1F7E881F9810284F385E02D2F
:100A900042E062E0CE01199517C06062CE010E946B
:100AA000F8048AE496E40197F1F76C816062CE0164
:100AB0000E94F80402E512E0C8010197F1F76C8189
:100AC0006062CE010E94F804C8010197F1F76C81C1
:100AD0006062CE010E94F8048AEE90E00197F1F77F
:100AE00084E08D836CE0CE010E94F80461E0CE01C9
:100AF0000E94F8048AE39FE10197F1F782E08E8378
:100B000066E0CE010E94F804E881F9810084F18555
:100B1000E02D6FEFCE01DF91CF911F910F911994CE
:100B20000895089521E001C0220F6A95EAF7DC01DB
:100B30001C962C931C971A965C934E931997ED91E3
:100B4000FC910084F185E02D60E019940F931F93D0
:100B5000CF93DF93FC01A685B7858D01005C1F4F05
:100B6000E8018881998101968F739927AD014E5BC9
:100B70005F4FEA012881398182179307D1F3E80199
:100B800028813981A20FB31F6C93A685B785A05C1D
:100B9000BF4F11969C938E93A689B7892C9181E0C3
:100BA00090E0078C02C0880F991F0A94E2F7822B0D
:100BB0008C9381E081A30488F589E02D8081806495
:100BC000808381E090E0DF91CF911F910F91089594
:100BD000FC0181A1882329F0A489B5898C9186FF25
:100BE000FBCF11A20895FC01A485B585FD01E05C51
:100BF000FF4F2081318132968081918128173907FA
:100C000079F080819181A80FB91F8C912081318169
:100C10002F5F3F4F2F7333273183208390E0089558
:100C20008FEF9FEF0895DC011C96ED91FC911D97CD
:100C3000DF01A05CBF4F2D913C91119712968D91D1
:100C40009C9111972817390739F08D919C91E80FE5
:100C5000F91F808190E008958FEF9FEF0895FC01C8
:100C600024853585F901E05CFF4F808191813296C2
:100C700020813181821B930B8F7399270895FB018B
:100C8000E05CFF4F208131812F5F3F4F2F7333276F
:100C9000DB01AE5BBF4F4D915C912417350741F0EE
:100CA00040815181DB01A40FB51F8C9331832083D8
:100CB0000895CF92DF92EF92FF920F931F93CF93FD
:100CC000DF936C01EB017B01E40EF51E00E010E008
:100CD000CE15DF0561F06991D601ED91FC9101908F
:100CE000F081E02DC6011995080F191FF1CFC80139
:100CF000DF91CF911F910F91FF90EF90DF90CF90F8
:100D00000895362F90E0FC01EC5CFD4F4491FC010E
:100D1000E251FE4F2491FC01E855FE4F9491992336
:100D200009F467C0442309F451C050E0FA01319737
:100D3000E131F10508F04AC08827EE58FF4F8F4F88
:100D40000C94F80D809180008F7703C08091800013
:100D50008F7D809380003AC084B58F7702C084B5C0
:100D60008F7D84BD33C08091B0008F7703C08091A8
:100D7000B0008F7D8093B00029C0809190008F7764
:100D800007C0809190008F7D03C080919000877F85
:100D9000809390001BC08091A0008F7707C0809146
:100DA000A0008F7D03C08091A000877F8093A0006A
:100DB0000DC0809120018F7707C0809120018F7D29
:100DC00003C080912001877F80932001E92FF0E00C
:100DD000EE0FFF1FE257FE4FA591B4918FB7F89425
:100DE000EC91311103C020952E2301C02E2B2C93A2
:100DF0008FBF08953FB7F8948091DA059091DB0595
:100E0000A091DC05B091DD0526B5A89B05C02F3F5C
:100E100019F00196A11DB11D3FBFBA2FA92F982F20
:100E20008827820F911DA11DB11DBC01CD0142E09B
:100E3000660F771F881F991F4A95D1F70895EF9283
:100E4000FF920F931F93CF938C01FC01759684E062
:100E5000C0E060FF02C09081C92B66958150319639
:100E60008111F7CF413011F4F8014489F8018585EB
:100E7000C82BC42B7801FEE0EF0EF11CF80162894B
:100E80006C2BC7010E94D404F801628960956C2321
:100E9000C701CF911F910F91FF90EF900C94D40454
:100EA0000F931F93CF93DF93062F0F70423019F4E7
:100EB00040E0602F10C0142F262FEC0130E0B90164
:100EC00084E0759567958A95E1F7CE010E941F072A
:100ED000412F602FCE01DF91CF911F910F910C9484
:100EE0001F07FC0184858823A9F0218532852115FF
:100EF000310519F4611106C007C02130310521F414
:100F0000611102C0858701C015866585CF010E96E7
:100F10000C94D4040895EF92FF920F931F93CF93F4
:100F2000DF93EC01062FF42EE22E8B85888B109236
:100F300075021092740210927A0210927C02109242
:100F4000780211E0109377021092760261E084E15A
:100F50000E94810661E085E10E9481068091B900CE
:100F60008E7F8093B9008091B9008D7F8093B90006
:100F700088E48093B80085E48093BC00888910934E
:100F8000790280937B0210927A0210927C020E9476
:100F90004C0391E0811190E0998B992329F08DE722
:100FA00092E00E948B018E878989882339F01F8601
:100FB0001C8260E0CE010E960E94D4042E2D4F2D8F
:100FC000602FCE01DF91CF911F910F91FF90EF9095
:100FD0000C9400051F920F920FB60F9211240BB6BE
:100FE0000F922F933F938F939F93EF93FF932091B3
:100FF000C9023091CA028091CB029091CC0228178D
:10100000390731F4809131018F7D8093310114C013
:10101000E091CB02F091CC02E757FD4F2081809107
:10102000CB029091CC0201968F7399279093CC02BA
:101030008093CB0220933601FF91EF919F918F9186
:101040003F912F910F900BBE0F900FBE0F901F90EE
:1010500018951F920F920FB60F9211240BB60F9294
:101060002F933F938F939F93EF93FF93209151037F
:1010700030915203809153039091540328173907FC
:1010800031F48091D1008F7D8093D10014C0E09124
:101090005303F0915403EF5EFC4F20818091530382
:1010A0009091540301968F739927909354038093E2
:1010B00053032093D600FF91EF919F918F913F9121
:1010C0002F910F900BBE0F900FBE0F901F90189591
:1010D0001F920F920FB60F9211240BB60F922F93FF
:1010E0003F938F939F93EF93FF932091D903309178
:1010F000DA038091DB039091DC032817390731F480
:101100008091C9008F7D8093C90014C0E091DB03FA
:10111000F091DC03E756FC4F20818091DB03909136
:10112000DC0301968F7399279093DC038093DB0394
:101130002093CE00FF91EF919F918F913F912F913E
:101140000F900BBE0F900FBE0F901F9018951F921F
:101150000F920FB60F9211240BB60F922F933F935D
:101160008F939F93EF93FF93209183043091840496
:1011700080918504909186042817390731F4809175
:10118000C1008F7D8093C10014C0E0918504F0916F
:101190008604ED5BFB4F208180918504909186044D
:1011A00001968F73992790938604809385042093EA
:1011B000C600FF91EF919F918F913F912F910F90DA
:1011C0000BBE0F900FBE0F901F9018951F920F929D
:1011D0000FB60F9211240BB60F922F933F934F939C
:1011E0005F936F937F938F939F93AF93BF93EF938F
:1011F000FF938091300182FD07C0809136016DEC34
:1012000072E00E943F0602C080913601FF91EF918B
:10121000BF91AF919F918F917F916F915F914F910E
:101220003F912F910F900BBE0F900FBE0F901F900C
:1012300018951F920F920FB60F9211240BB60F92B2
:101240002F933F934F935F936F937F938F939F93CE
:10125000AF93BF93EF93FF938091D00082FD07C0BF
:101260008091D60065E573E00E943F0602C0809140
:10127000D600FF91EF91BF91AF919F918F917F9198
:101280006F915F914F913F912F910F900BBE0F90F7
:101290000FBE0F901F9018951F920F920FB60F92CE
:1012A00011240BB60F922F933F934F935F936F933D
:1012B0007F938F939F93AF93BF93EF93FF9380910F
:1012C000C80082FD07C08091CE006DED73E00E94E2
:1012D0003F0602C08091CE00FF91EF91BF91AF9188
:1012E0009F918F917F916F915F914F913F912F913E
:1012F0000F900BBE0F900FBE0F901F9018951F926E
:101300000F920FB60F9211240BB60F922F933F93AB
:101310004F935F936F937F938F939F93AF93BF93FD
:10132000EF93FF938091C00082FD07C08091C600BB
:1013300067E874E00E943F0602C08091C600FF91FA
:10134000EF91BF91AF919F918F917F916F915F913D
:101350004F913F912F910F900BBE0F900FBE0F90AA
:101360001F9018956115710579F0FB01019000201F
:10137000E9F73197AF01461B570BDC01ED91FC916A
:101380000280F381E02D199480E090E00895CF92DF
:10139000DF92EF92FF92CF93DF936B017C010E946B
:1013A000FA06EB01C114D104E104F10479F00E94C2
:1013B000FA066C1B7D0B683E7340A0F381E0C81AEF
:1013C000D108E108F108C851DC4FECCFDF91CF9193
:1013D000FF90EF90DF90CF9008951F920F920FB67D
:1013E0000F9211242F933F938F939F93AF93BF93AB
:1013F0008091D6059091D705A091D805B091D905D7
:101400003091D50523E0230F2D3720F40196A11D3F
:10141000B11D05C026E8230F0296A11DB11D209322
:10142000D5058093D6059093D705A093D805B093A2
:10143000D9058091DA059091DB05A091DC05B0918A
:10144000DD050196A11DB11D8093DA059093DB05A2
:10145000A093DC05B093DD05BF91AF919F918F9173
:101460003F912F910F900FBE0F901F9018950F93E3
:101470001F93CF93EDE7F2E01382128248EE53E020
:1014800060E070E0448355836683778380E192E077
:1014900091838083EBECF4E01382128244835583C2
:1014A00066837783A0E2B2E0B183A08387E894E00B
:1014B0009587848783E494E09787868785EC90E01E
:1014C000918B808B84EC90E0938B828B80EC90E00E
:1014D000958B848B81EC90E0978B868B82EC90E0EF
:1014E000918F808F86EC90E0938F828F94E0948F21
:1014F000C3E0C58F37E0368F25E0278F81E080A3DA
:10150000E1E2F4E013821282448355836683778399
:10151000B183A0830DED13E01587048709E913E07B
:10152000178706870DEC10E0118B008B0CEC10E098
:10153000138B028B08EC10E0158B048B09EC10E088
:10154000178B068B0AEC10E0118F008F0EEC10E069
:10155000138F028F948FC58F368F278F80A3E3EB75
:10156000F5E0138212824483558366837783B183C7
:10157000A08305E513E01587048701E113E01787D1
:10158000068705ED10E0118B008B04ED10E0138B46
:10159000028B00ED10E0158B048B01ED10E0178B32
:1015A000068B02ED10E0118F008F06ED10E0138F17
:1015B000028F948FC58F368F278F80A3E1E9F5E0E6
:1015C000138212824483558366837783B183A08319
:1015D0004DEC52E05587448749E852E057874687EB
:1015E00045E351E0518B408B44E351E0538B428BF8
:1015F00040E351E0558B448B41E351E0578B468BE0
:1016000042E351E0518F408F46E351E0538F428FC8
:10161000948FC58F368F278F80A3EDEEF4E0138271
:10162000128220E332E031832083108A2FEF278754
:101630001686118A27E2238714861586128611865C
:10164000928B92E0938B848B80E1858B80E2868BFA
:1016500080E4878B80E8808FCF911F910F91089550
:10166000CF93DF93CDB7DEB7C951D1400FB6F89411
:10167000DEBF0FBECDBF789484B5826084BD84B5D3
:10168000816084BD85B5826085BD85B5816085BD7D
:1016900080916E00816080936E0010928100809135
:1016A00081008260809381008091810081608093BD
:1016B0008100809180008160809380008091B100E2
:1016C00084608093B1008091B00081608093B0000D
:1016D000809191008260809391008091910081605F
:1016E0008093910080919000816080939000809120
:1016F000A10082608093A1008091A100816080930D
:10170000A1008091A00081608093A00080912101C0
:101710008260809321018091210181608093210169
:101720008091200181608093200180917A00846003
:1017300080937A0080917A00826080937A00809111
:101740007A00816080937A0080917A00806880932B
:101750007A001092C100E091DF04F091E00481E092
:1017600090E09C010090EB0402C0220F331F0A940A
:10177000E2F72083E091DB04F091DC041082E09139
:10178000DD04F091DE042FEC20831092EC04E09154
:10179000E104F091E20440819C010090E70402C062
:1017A000220F331F0A94E2F7242B2083E091E104F7
:1017B000F091E20440819C010090E80402C0220FF5
:1017C000331F0A94E2F7242B2083E091E104F09187
:1017D000E20440819C010090E90402C0220F331F03
:1017E0000A94E2F7242B2083E091E104F091E204D3
:1017F00020810090EA0402C0880F991F0A94E2F742
:101800008095822380836CE372E08BEC94E00E94ED
:10181000B2090E941F0360ED77E080E090E00E9433
:10182000C70920E044E064E18DEE94E00E948B075C
:1018300040E050E063E08DEE94E00E94920561E0AC
:101840008DEE94E00E94710762E08DEE94E00E94BC
:10185000F8048AE39FE10197F1F768E472E08DEE06
:1018600094E00E94B209CA5EDE4F1882C651D14090
:1018700080E4C95EDE4F8883C751D14094E1C85EE1
:10188000DE4F9883C851D14094E5C75EDE4F988300
:10189000C951D14019828A8380E18B8380E58C8392
:1018A0002091F404223018F48FEF820F01C081E000
:1018B0003091F50490E0303139F4243029F4FE0100
:1018C000E80FF91F618107C0E6E1F1E0EC0FFD1FB1
:1018D000E80FF91F608160688DEE94E00E94F804C3
:1018E00060E572E08DEE94E00E94B20946E260E6A7
:1018F00079E080E090E00E947802A12CB12CE12CEC
:10190000F12C00E010E0C12CD12C212C312C21E055
:101910002216310409F485C080912F04909130047F
:10192000DC01A05CBF4FFC01EE5BFF4F2D913C91B1
:1019300011978081918128173907C1F7E091370409
:10194000F0913804308181E090E0AC0100903D04DA
:1019500002C0440F551F0A94E2F7242F2095232339
:101960002083E0913704F09138043081AC0100907D
:101970003E0402C0440F551F0A94E2F7242F20951D
:1019800023232083E0913704F09138043081AC01A7
:1019900000903F0402C0440F551F0A94E2F7242F21
:1019A000209523232083E0913704F091380420818F
:1019B0000090400402C0880F991F0A94E2F78095B6
:1019C0008223808380912D0490912E04FC01EE5B94
:1019D000FF4F2081318132973183208361E082E1A2
:1019E0000E94810668EE73E080E090E00E94C709E3
:1019F00060E082E10E94810662E370E080E090E0B6
:101A00000E94C70961E082E10E94810646E260E629
:101A100079E080E090E00E94780222242394312C27
:101A200076CF0E9462020E94620281E294E00E94EC
:101A30002F06181619060CF06ACF82E0A816B1041A
:101A400029F14CF4A114B10409F49EC0E1E0AE16F2
:101A5000B10469F0EACFF4E0AF16B10409F486C02E
:101A60002CF186E0A816B10409F499C0DECF81E21A
:101A700094E00E94F305843F910509F489C08F34F6
:101A8000910599F62FE4C22ED12C85C081E294E015
:101A90000E94F3059C01225031092E37310508F0D0
:101AA0007EC08C0173E0A72EB12CBFCF81E294E001
:101AB0000E94F305AC01F7013296EE0FFF1F81E0A3
:101AC00090E08C0F9D1FE80FF91F518340839FEF1B
:101AD000E91AF90AE016F1060CF4A7CF36016026E0
:101AE0007126FE0135964F0180E090E0580121E01B
:101AF000A21AB1088A159B0534F42191319162260E
:101B000073260196F7CF6416750639F5C6010E9453
:101B10002D0380E20E941403C8010E942D0380E27D
:101B20000E941403412C512C4A145B046CF4F40100
:101B3000819191914F010E942D0380E20E94140334
:101B4000FFEF4F1A5F0AF0CFC3010E942D030E94DE
:101B50001F0356E0A52EB12C68CF6CE572E08BEC2C
:101B600094E00E94B2090E941F0319C080E20E9403
:101B700014030E941F03A12CB12CE12CF12C00E0D6
:101B800010E0C12CD12C51CFAA24A394B12C4DCF5D
:101B900034EFC32ED12C92E0A92EB12C46CF84E095
:101BA000A82EB12C42CFF8940C94000EA1E21A2E6C
:101BB000AA1BBB1BFD010DC0AA1FBB1FEE1FFF1FF1
:101BC000A217B307E407F50720F0A21BB30BE40B41
:101BD000F50B661F771F881F991F1A9469F7609588
:101BE0007095809590959B01AC01BD01CF01089542
:101BF000EE0FFF1F881F8BBF0790F691E02D199401
:041C0000F894FFCF86
:101C04000600F400030051000A00AC0000000000CC
:101C1400DF01A2019A018B017D017C01000000001B
:101C2400A60559062F06F3051306E8050000000073
:101C3400080259068B0792057107500748656C6CBA
:101C44006F20776F726C64005765626173746F0004
:101C540074657374207374756666210043686563E4
:101C64006B73756D20636865636B204641494C4511
:041C740044212100E6
:00000001FF
